{
  "_format": "hh-sol-artifact-1",
  "contractName": "NFTAirdrop",
  "sourceName": "contracts/NFTAirdrop.sol",
  "abi": [
    {
      "inputs": [
        {
          "internalType": "address",
          "name": "_tokenAddress",
          "type": "address"
        },
        {
          "internalType": "bytes32",
          "name": "_merkleRootHash",
          "type": "bytes32"
        }
      ],
      "stateMutability": "nonpayable",
      "type": "constructor"
    },
    {
      "anonymous": false,
      "inputs": [],
      "name": "TokenClaimedSuccessfully",
      "type": "event"
    },
    {
      "anonymous": false,
      "inputs": [
        {
          "indexed": true,
          "internalType": "address",
          "name": "sender",
          "type": "address"
        },
        {
          "indexed": false,
          "internalType": "uint256",
          "name": "amount",
          "type": "uint256"
        }
      ],
      "name": "contractDepositSuccessfully",
      "type": "event"
    },
    {
      "inputs": [
        {
          "internalType": "bytes32",
          "name": "_new_merkle_root",
          "type": "bytes32"
        }
      ],
      "name": "UpdateMerkleRoot",
      "outputs": [],
      "stateMutability": "nonpayable",
      "type": "function"
    },
    {
      "inputs": [
        {
          "internalType": "uint256",
          "name": "_amount",
          "type": "uint256"
        },
        {
          "internalType": "bytes32[]",
          "name": "_merkleProof",
          "type": "bytes32[]"
        }
      ],
      "name": "claimReward",
      "outputs": [],
      "stateMutability": "nonpayable",
      "type": "function"
    },
    {
      "inputs": [
        {
          "internalType": "uint256",
          "name": "_amount",
          "type": "uint256"
        }
      ],
      "name": "contractDeposit",
      "outputs": [],
      "stateMutability": "nonpayable",
      "type": "function"
    },
    {
      "inputs": [],
      "name": "merkleRootHash",
      "outputs": [
        {
          "internalType": "bytes32",
          "name": "",
          "type": "bytes32"
        }
      ],
      "stateMutability": "view",
      "type": "function"
    },
    {
      "inputs": [],
      "name": "owner",
      "outputs": [
        {
          "internalType": "address",
          "name": "",
          "type": "address"
        }
      ],
      "stateMutability": "view",
      "type": "function"
    },
    {
      "inputs": [],
      "name": "tokenAddress",
      "outputs": [
        {
          "internalType": "address",
          "name": "",
          "type": "address"
        }
      ],
      "stateMutability": "view",
      "type": "function"
    },
    {
      "inputs": [],
      "name": "tokenRemaining",
      "outputs": [],
      "stateMutability": "nonpayable",
      "type": "function"
    }
  ],
  "bytecode": "0x608060405234801561001057600080fd5b5060405161176f38038061176f8339818101604052810190610032919061015b565b33600160006101000a81548173ffffffffffffffffffffffffffffffffffffffff021916908373ffffffffffffffffffffffffffffffffffffffff16021790555081600260006101000a81548173ffffffffffffffffffffffffffffffffffffffff021916908373ffffffffffffffffffffffffffffffffffffffff16021790555080600081905550505061019b565b600080fd5b600073ffffffffffffffffffffffffffffffffffffffff82169050919050565b60006100f2826100c7565b9050919050565b610102816100e7565b811461010d57600080fd5b50565b60008151905061011f816100f9565b92915050565b6000819050919050565b61013881610125565b811461014357600080fd5b50565b6000815190506101558161012f565b92915050565b60008060408385031215610172576101716100c2565b5b600061018085828601610110565b925050602061019185828601610146565b9150509250929050565b6115c5806101aa6000396000f3fe608060405234801561001057600080fd5b506004361061007d5760003560e01c8063938f25181161005b578063938f2518146100c65780639d76ea58146100e2578063ae8bdbc114610100578063ddb6dfc41461011c5761007d565b806360a44ec11461008257806368646cf01461009e5780638da5cb5b146100a8575b600080fd5b61009c60048036038101906100979190610c78565b61013a565b005b6100a661035d565b005b6100b061054e565b6040516100bd9190610ce6565b60405180910390f35b6100e060048036038101906100db9190610d66565b610574565b005b6100ea61088f565b6040516100f79190610ce6565b60405180910390f35b61011a60048036038101906101159190610dfc565b6108b5565b005b6101246108c7565b6040516101319190610e38565b60405180910390f35b6101426108cd565b6000811115610186576040517f08c379a000000000000000000000000000000000000000000000000000000000815260040161017d90610ed6565b60405180910390fd5b6000600260009054906101000a900473ffffffffffffffffffffffffffffffffffffffff1673ffffffffffffffffffffffffffffffffffffffff166370a08231336040518263ffffffff1660e01b81526004016101e39190610ce6565b602060405180830381865afa158015610200573d6000803e3d6000fd5b505050506040513d601f19601f820116820180604052508101906102249190610f0b565b9050818110610268576040517f08c379a000000000000000000000000000000000000000000000000000000000815260040161025f90610f84565b60405180910390fd5b600260009054906101000a900473ffffffffffffffffffffffffffffffffffffffff1673ffffffffffffffffffffffffffffffffffffffff166323b872dd3330856040518463ffffffff1660e01b81526004016102c793929190610fb3565b6020604051808303816000875af11580156102e6573d6000803e3d6000fd5b505050506040513d601f19601f8201168201806040525081019061030a9190611022565b503373ffffffffffffffffffffffffffffffffffffffff167fb2c717033e593f972fb0acbdb74f23cc8cb4bd5e6b45d39f8524b2f76f6d100d83604051610351919061104f565b60405180910390a25050565b6103656108cd565b6000600260009054906101000a900473ffffffffffffffffffffffffffffffffffffffff1673ffffffffffffffffffffffffffffffffffffffff166370a08231306040518263ffffffff1660e01b81526004016103c29190610ce6565b602060405180830381865afa1580156103df573d6000803e3d6000fd5b505050506040513d601f19601f820116820180604052508101906104039190610f0b565b90506000811115610449576040517f08c379a0000000000000000000000000000000000000000000000000000000008152600401610440906110b6565b60405180910390fd5b600260009054906101000a900473ffffffffffffffffffffffffffffffffffffffff1673ffffffffffffffffffffffffffffffffffffffff1663a9059cbb600160009054906101000a900473ffffffffffffffffffffffffffffffffffffffff16836040518363ffffffff1660e01b81526004016104c89291906110d6565b6020604051808303816000875af11580156104e7573d6000803e3d6000fd5b505050506040513d601f19601f8201168201806040525081019061050b9190611022565b1561054b576040517f08c379a00000000000000000000000000000000000000000000000000000000081526004016105429061114b565b60405180910390fd5b50565b600160009054906101000a900473ffffffffffffffffffffffffffffffffffffffff1681565b600073bc4ca0eda7647a8ab7c2061c2e118a18a936f13d73ffffffffffffffffffffffffffffffffffffffff166370a08231336040518263ffffffff1660e01b81526004016105c39190610ce6565b602060405180830381865afa1580156105e0573d6000803e3d6000fd5b505050506040513d601f19601f820116820180604052508101906106049190610f0b565b1115610645576040517f08c379a000000000000000000000000000000000000000000000000000000000815260040161063c906111b7565b60405180910390fd5b600073ffffffffffffffffffffffffffffffffffffffff163373ffffffffffffffffffffffffffffffffffffffff16146106b4576040517f08c379a00000000000000000000000000000000000000000000000000000000081526004016106ab90611223565b60405180910390fd5b600033846040516020016106c99291906112ac565b60405160208183030381529060405280519060200120905061072f838380806020026020016040519081016040528093929190818152602001838360200280828437600081840152601f19601f82011690508083019250505050505050600054836109ce565b1561076f576040517f08c379a000000000000000000000000000000000000000000000000000000000815260040161076690611324565b60405180910390fd5b600360003373ffffffffffffffffffffffffffffffffffffffff1673ffffffffffffffffffffffffffffffffffffffff16815260200190815260200160002060009054906101000a900460ff166107fb576040517f08c379a00000000000000000000000000000000000000000000000000000000081526004016107f290611390565b60405180910390fd5b6001600360003373ffffffffffffffffffffffffffffffffffffffff1673ffffffffffffffffffffffffffffffffffffffff16815260200190815260200160002060006101000a81548160ff02191690831515021790555061085d33856109e5565b7fda1dba356f466c2ab8b4826b4995dc3235930c631c322d5aa1f5211f084782b060405160405180910390a150505050565b600260009054906101000a900473ffffffffffffffffffffffffffffffffffffffff1681565b6108bd6108cd565b8060008190555050565b60005481565b600073ffffffffffffffffffffffffffffffffffffffff163373ffffffffffffffffffffffffffffffffffffffff161461093c576040517f08c379a0000000000000000000000000000000000000000000000000000000008152600401610933906113fc565b60405180910390fd5b600160009054906101000a900473ffffffffffffffffffffffffffffffffffffffff1673ffffffffffffffffffffffffffffffffffffffff163373ffffffffffffffffffffffffffffffffffffffff16036109cc576040517f08c379a00000000000000000000000000000000000000000000000000000000081526004016109c390611468565b60405180910390fd5b565b6000826109db8584610ba6565b1490509392505050565b80600260009054906101000a900473ffffffffffffffffffffffffffffffffffffffff1673ffffffffffffffffffffffffffffffffffffffff166370a08231306040518263ffffffff1660e01b8152600401610a419190610ce6565b602060405180830381865afa158015610a5e573d6000803e3d6000fd5b505050506040513d601f19601f82011682018060405250810190610a829190610f0b565b10610ac2576040517f08c379a0000000000000000000000000000000000000000000000000000000008152600401610ab9906114d4565b60405180910390fd5b600260009054906101000a900473ffffffffffffffffffffffffffffffffffffffff1673ffffffffffffffffffffffffffffffffffffffff1663a9059cbb83836040518363ffffffff1660e01b8152600401610b1f9291906110d6565b6020604051808303816000875af1158015610b3e573d6000803e3d6000fd5b505050506040513d601f19601f82011682018060405250810190610b629190611022565b15610ba2576040517f08c379a0000000000000000000000000000000000000000000000000000000008152600401610b9990611540565b60405180910390fd5b5050565b60008082905060005b8451811015610beb57610bdc82868381518110610bcf57610bce611560565b5b6020026020010151610bf6565b91508080600101915050610baf565b508091505092915050565b6000818310610c0e57610c098284610c21565b610c19565b610c188383610c21565b5b905092915050565b600082600052816020526040600020905092915050565b600080fd5b600080fd5b6000819050919050565b610c5581610c42565b8114610c6057600080fd5b50565b600081359050610c7281610c4c565b92915050565b600060208284031215610c8e57610c8d610c38565b5b6000610c9c84828501610c63565b91505092915050565b600073ffffffffffffffffffffffffffffffffffffffff82169050919050565b6000610cd082610ca5565b9050919050565b610ce081610cc5565b82525050565b6000602082019050610cfb6000830184610cd7565b92915050565b600080fd5b600080fd5b600080fd5b60008083601f840112610d2657610d25610d01565b5b8235905067ffffffffffffffff811115610d4357610d42610d06565b5b602083019150836020820283011115610d5f57610d5e610d0b565b5b9250929050565b600080600060408486031215610d7f57610d7e610c38565b5b6000610d8d86828701610c63565b935050602084013567ffffffffffffffff811115610dae57610dad610c3d565b5b610dba86828701610d10565b92509250509250925092565b6000819050919050565b610dd981610dc6565b8114610de457600080fd5b50565b600081359050610df681610dd0565b92915050565b600060208284031215610e1257610e11610c38565b5b6000610e2084828501610de7565b91505092915050565b610e3281610dc6565b82525050565b6000602082019050610e4d6000830184610e29565b92915050565b600082825260208201905092915050565b7f596f75206e6f7420616c6c6f7720746f206465706f736974207a65726f20616d60008201527f6f756e7400000000000000000000000000000000000000000000000000000000602082015250565b6000610ec0602483610e53565b9150610ecb82610e64565b604082019050919050565b60006020820190508181036000830152610eef81610eb3565b9050919050565b600081519050610f0581610c4c565b92915050565b600060208284031215610f2157610f20610c38565b5b6000610f2f84828501610ef6565b91505092915050565b7f496e73756666696369656e7420616d6f756e742066726f6d2073656e64657200600082015250565b6000610f6e601f83610e53565b9150610f7982610f38565b602082019050919050565b60006020820190508181036000830152610f9d81610f61565b9050919050565b610fad81610c42565b82525050565b6000606082019050610fc86000830186610cd7565b610fd56020830185610cd7565b610fe26040830184610fa4565b949350505050565b60008115159050919050565b610fff81610fea565b811461100a57600080fd5b50565b60008151905061101c81610ff6565b92915050565b60006020828403121561103857611037610c38565b5b60006110468482850161100d565b91505092915050565b60006020820190506110646000830184610fa4565b92915050565b7f4e6f20746f6b656e206c65667400000000000000000000000000000000000000600082015250565b60006110a0600d83610e53565b91506110ab8261106a565b602082019050919050565b600060208201905081810360008301526110cf81611093565b9050919050565b60006040820190506110eb6000830185610cd7565b6110f86020830184610fa4565b9392505050565b7f57697468647261776c206661696c656400000000000000000000000000000000600082015250565b6000611135601083610e53565b9150611140826110ff565b602082019050919050565b6000602082019050818103600083015261116481611128565b9050919050565b7f596f7520646f206e6f7420686176652042415943204e46540000000000000000600082015250565b60006111a1601883610e53565b91506111ac8261116b565b602082019050919050565b600060208201905081810360008301526111d081611194565b9050919050565b7f5a65726f2061646472657373206e6f7420616c6c6f7765640000000000000000600082015250565b600061120d601883610e53565b9150611218826111d7565b602082019050919050565b6000602082019050818103600083015261123c81611200565b9050919050565b60008160601b9050919050565b600061125b82611243565b9050919050565b600061126d82611250565b9050919050565b61128561128082610cc5565b611262565b82525050565b6000819050919050565b6112a66112a182610c42565b61128b565b82525050565b60006112b88285611274565b6014820191506112c88284611295565b6020820191508190509392505050565b7f596f7520617265206e6f7420456c696769626c65000000000000000000000000600082015250565b600061130e601483610e53565b9150611319826112d8565b602082019050919050565b6000602082019050818103600083015261133d81611301565b9050919050565b7f546f6b656e20636c61696d656420616c72656164790000000000000000000000600082015250565b600061137a601583610e53565b915061138582611344565b602082019050919050565b600060208201905081810360008301526113a98161136d565b9050919050565b7f5a65726f20616464726573732064657465637465640000000000000000000000600082015250565b60006113e6601583610e53565b91506113f1826113b0565b602082019050919050565b60006020820190508181036000830152611415816113d9565b9050919050565b7f596f7520617265206e6f7420746865206f776e65720000000000000000000000600082015250565b6000611452601583610e53565b915061145d8261141c565b602082019050919050565b6000602082019050818103600083015261148181611445565b9050919050565b7f496e73756666696369656e742066756e64000000000000000000000000000000600082015250565b60006114be601183610e53565b91506114c982611488565b602082019050919050565b600060208201905081810360008301526114ed816114b1565b9050919050565b7f556e61626c6520746f20636c61696d20746f6b656e0000000000000000000000600082015250565b600061152a601583610e53565b9150611535826114f4565b602082019050919050565b600060208201905081810360008301526115598161151d565b9050919050565b7f4e487b7100000000000000000000000000000000000000000000000000000000600052603260045260246000fdfea2646970667358221220ddcf2cc8e8d7085099eb722a31a3248c9305341200c1c7db2cd7495651465cf164736f6c634300081a0033",
  "linkReferences": {},
  "deployedLinkReferences": {}
}